:020000040000fa
:080000000001040000000000f3
:020000040000fa
:040008005e02000094
:020000040000fa
:04000c005e02000090
:020000040000fa
:040010005e0200008c
:020000040000fa
:040014005e02000088
:020000040000fa
:040018005e02000084
:020000040000fa
:04001c005e02000080
:020000040000fa
:040020005e0200007c
:020000040000fa
:040024005e02000078
:020000040000fa
:040028005e02000074
:020000040000fa
:04002c005e02000070
:020000040000fa
:040030005e0200006c
:020000040000fa
:040034003c0200008a
:020000040000fa
:040038005e02000064
:020000040000fa
:04003c005e02000060
:020000040000fa
:040040005e0200005c
:020000040000fa
:040044005e02000058
:020000040000fa
:040048005e02000054
:020000040000fa
:04004c005e02000050
:020000040000fa
:040050005e0200004c
:020000040000fa
:0400540004020000a2
:020000040000fa
:040058005e02000044
:020000040000fa
:04005c005e02000040
:020000040000fa
:040060005e0200003c
:020000040000fa
:040064005e02000038
:020000040000fa
:040068005e02000034
:020000040000fa
:04006c005e02000030
:020000040000fa
:040070005e0200002c
:020000040000fa
:040074005e02000028
:020000040000fa
:040078005e02000024
:020000040000fa
:04007c005e02000020
:020000040000fa
:040080005e0200001c
:020000040000fa
:040084005e02000018
:020000040000fa
:040088005e02000014
:020000040000fa
:04008c005e02000010
:020000040000fa
:040090005e0200000c
:020000040000fa
:040094005e02000008
:020000040000fa
:040098005e02000004
:020000040000fa
:04009c005e02000000
:020000040000fa
:0400a0005e020000fc
:020000040000fa
:0400a4005e020000f8
:020000040000fa
:0400a8005e020000f4
:020000040000fa
:0400ac005e020000f0
:020000040000fa
:0400b0005e020000ec
:020000040000fa
:0400b4005e020000e8
:020000040000fa
:0400b8005e020000e4
:020000040000fa
:0400bc005e020000e0
:020000040000fa
:0400c0005e020000dc
:020000040000fa
:0400c4005e020000d8
:020000040000fa
:0400c8005e020000d4
:020000040000fa
:0400cc005e020000d0
:020000040000fa
:0400d0005e020000cc
:020000040000fa
:0400d4005e020000c8
:020000040000fa
:0400d8005e020000c4
:020000040000fa
:0400dc005e020000c0
:020000040000fa
:0400e0005e020000bc
:020000040000fa
:0400e4005e020000b8
:020000040000fa
:0400e8005e020000b4
:020000040000fa
:0400ec005e020000b0
:020000040000fa
:0400f0005e020000ac
:020000040000fa
:0400f4005e020000a8
:020000040000fa
:0400f8005e020000a4
:020000040000fa
:0400fc005e020000a0
:020000040000fa
:040100005e0200009b
:020000040000fa
:040104005e02000097
:020000040000fa
:040108005e02000093
:020000040000fa
:04010c005e0200008f
:020000040000fa
:040110005e0200008b
:020000040000fa
:040114005e02000087
:020000040000fa
:040118005e02000083
:020000040000fa
:04011c005e0200007f
:020000040000fa
:040120005e0200007b
:020000040000fa
:040124005e02000077
:020000040000fa
:040128005e02000073
:020000040000fa
:04012c005e0200006f
:020000040000fa
:040130005e0200006b
:020000040000fa
:040134005e02000067
:020000040000fa
:040138005e02000063
:020000040000fa
:04013c005e0200005f
:020000040000fa
:040140005e0200005b
:020000040000fa
:040144005e02000057
:020000040000fa
:040148005e02000053
:020000040000fa
:04014c005e0200004f
:020000040000fa
:040150005e0200004b
:020000040000fa
:040154005e02000047
:020000040000fa
:040158005e02000043
:020000040000fa
:04015c005e0200003f
:020000040000fa
:040160005e0200003b
:020000040000fa
:040164005e02000037
:020000040000fa
:040168005e02000033
:020000040000fa
:04016c005e0200002f
:020000040000fa
:040170005e0200002b
:020000040000fa
:040174005e02000027
:020000040000fa
:040178005e02000023
:020000040000fa
:04017c005e0200001f
:020000040000fa
:040180005e0200001b
:020000040000fa
:040184005e02000017
:020000040000fa
:040188005e02000013
:020000040000fa
:04018c005e0200000f
:020000040000fa
:040190005e0200000b
:020000040000fa
:040194005e02000007
:020000040000fa
:040198005e02000003
:020000040000fa
:04019c005e020000ff
:020000040000fa
:0401a0005e020000fb
:020000040000fa
:0401a4005e020000f7
:020000040000fa
:0401a8005e020000f3
:020000040000fa
:0401ac005e020000ef
:020000040000fa
:0401b0005e020000eb
:020000040000fa
:0401b4005e020000e7
:020000040000fa
:0401b8005e020000e3
:020000040000fa
:0401bc005e020000df
:020000040000fa
:0401c0005e020000db
:020000040000fa
:0401c4005e020000d7
:020000040000fa
:0401c8005e020000d3
:020000040000fa
:0401cc005e020000cf
:020000040000fa
:0401d0005e020000cb
:020000040000fa
:0401d4005e020000c7
:020000040000fa
:0401d8005e020000c3
:020000040000fa
:0401dc005e020000bf
:020000040000fa
:0401e0005e020000bb
:020000040000fa
:0401e4005e020000b7
:020000040000fa
:0401e8005e020000b3
:020000040000fa
:0401ec005e020000af
:020000040000fa
:0401f0005e020000ab
:020000040000fa
:0401f4005e020000a7
:020000040000fa
:0401f8005e020000a3
:020000040000fa
:0401fc005e0200009f
:020000040000fa
:10020000cfa820000eff27000e018800000000008c
:10021000000020000000e000020032000001200089
:100220002002880014000700a60007000000e0007c
:1002300003003a00006c200001002000020037009b
:100240000000200001002000810f7000010032003a
:1002500014000700000020000000e000020032004f
:1002600000000200000000001e0902000000000063
:100270000040da000000fe004440a90020002000f9
:100280000000e00003003200100020009001880010
:100290004440a800000006008a1f78008b1f7800e9
:1002a00000000600a1028800800478000000eb0036
:1002b0001f003700e284440054a0b4009905ba003e
:1002c000e284440054a0b4009906ba00e2844400d9
:1002d00054a0b4000006eb00476fde00fd07b2003b
:1002e000ae018800636ce10003003a00eaff0700fa
:1002f0000000eb000e003700606ce10008003a00df
:10030000004deb000a05e800020039003420ec0043
:100310000af0a0008b05e900f9ff3e000400370059
:100320006168e100010032000086eb000b0007006d
:1003300019c7ba001905ba000e04e00003003a001c
:100340000a00e000dbff3a0000000600fe07b200f2
:10035000ae0288008a047800f5ff37000cd0a300b5
:10036000e20f4d001c00390089027800354dba00bb
:100370000a05e800020039003420ec000af0a00071
:100380008b05e9000f003200254dba000a05e80090
:10039000020039003420ec000af0a0008b05e900cf
:1003a000080032000c00e0000600320015cdba0053
:1003b0000a05e800020039003420ec000af0a00031
:1003c0008b05e9008984e80054a0b4000b00e0002c
:1003d000e2ff3a00000006009902ba00055d7800cd
:1003e0008b05e900f7ff3200c82ade00055d7800c2
:1003f0008b05e900f3ff32000c00e000f1ff320052
:1004000019ddba00eeff3700809fbe00821f780022
:100410003200f8003400f80010002000a00188002d
:1004200010002000900188000000fa0095e1a8006b
:100430009021ef0000c8bf000080fb00f11c80008d
:100440008140780042a0200000004100014878006f
:1004500000c8bf000040e80000e8b7008960a900bc
:100460000080fa003400f9003200f9004f017800f2
:100470004f00be0000400600801f78003200f800e8
:100480003400f80010002000a001880010002000b7
:10049000900188000000fa0095e1a90010c0b300a7
:1004a00002e8b7008860a9000080fa003400f90073
:1004b0003200f9004f007800004006000040da00ea
:0804c0000000fe000000050031
:020000040000fa
:1004c8000000fa000a0007000004e00006003200fd
:1004d80040a0200010407800e14f500002003a0090
:1004e80026000700d50107000080fa00000006007a
:1004f8000400fa0000c8bf000080fb000080e9008b
:100508008000780040a02000db010700000f780081
:1005180000c8bf000080fb000000e90041a02000e7
:1005280000804000104078000080fb00c800dd001b
:1005380000c8bf000080fb000080e90042a0200046
:1005480000004100104078000080fb00810070002e
:100558000e80e800010878000e80e800100078009e
:100568009e0f500002003a0010c0b300010037008f
:100578000040eb000080fa00000006000000fa00ce
:100588000168ef0001c8bf008080fb0043a2200083
:1005980012c0b30081804100824878000040e80022
:1005a80001e8b70001c8bf008080fb0052a020000e
:1005b8001241780043a220008180410082487800df
:1005c8000040e80001e8b70050a020001040780083
:1005d8000080fb00e40f50000c003200e40f5000d4
:1005e80003003c00e30f5000060032000d00370006
:1005f800e60f500007003200f00f500007003200ed
:100608000800370009000700060037005c000700f3
:1006180004003700af000700020037000a01070096
:10062800000000000080fa00000006000600fa0042
:1006380080a02000104078000080fb00c800dd008a
:1006480090a02000104078000080fb00010070009e
:1006580000004000800078000e80e8000108780063
:1006680001c8bf008080fb000e81e80012017800fd
:100678000241780043a2200081804100824878002e
:100688000040e80001e8b7000000eb00000f780028
:100698001600370001c8bf008080fb0043a220007d
:1006a8000041eb0081804100824878000040e8006a
:1006b80001e8b70001c8bf008081fb009e007800f8
:1006c8000181400081a7200081004100910078004d
:1006d8000141780041a220008380400082487800d0
:1006e8000040e80001e8b7001e0fe8009e0078000f
:1006f8000e80e800100078000000d100808f5000c4
:10070800e4ff390001c8bf000080fb0080007800ca
:1007180040a22000580107008000780064004700cc
:100728000108780001c8bf008080fb006401470011
:10073800120178000241780043a220008180410024
:10074800824878000040e80001e8b70001c8bf000f
:100758008080fb0064014700120178004811de0028
:100768000241780043a2200081804100824878003d
:100778000040e80001e8b7000080fa000000060029
:100788000600fa0080a02000104078000080fb00de
:10079800c800dd0090a02000104078000080fb0019
:1007a8000100700000004000800078000e80e80022
:1007b8000108780001c8bf008080fb000e81e800b6
:1007c800120178000241780043a220008180410094
:1007d800824878000040e80001e8b7000000eb001c
:1007e800000f78001600370001c8bf008080fb00aa
:1007f80043a220000041eb0081804100824878003c
:100808000040e80001e8b70001c8bf008081fb0094
:100818009e0078000181400041a62000810041002f
:10082800910078000141780041a2200083804000b7
:10083800824878000040e80001e8b7001e0fe80091
:100848009e0078000e80e800100078000000d100bb
:10085800808f5000e4ff390001c8bf000080fb0012
:100868008000780040a22000030107008000780083
:10087800640047000108780001c8bf008080fb00c1
:1008880064014700120178000241780043a2200069
:1008980081804100824878000040e80001e8b70004
:1008a80001c8bf008080fb00640147001201780086
:1008b8004811de000241780043a2200081804100f7
:1008c800824878000040e80001e8b7000080fa009c
:1008d800000006000400fa0060a020001040780024
:1008e8000080fb00c800dd0070a0200010407800e8
:1008f8000080fb0001007000000f780080a020003d
:10090800104078000080fb00c800dd0090a02000a7
:10091800104078000080fb000100700000017800a2
:100928001e0078008000400080a720000080400062
:100938000208780001c8bf008080fb0043a22000a5
:100948000041eb0081804100824878000040e800c7
:1009580001e8b70001c8bf008080fb001e017800d5
:100968000241780043a2200081804100824878003b
:100978000040e80001e8b70001c8bf008080fb0024
:1009880043a220000041eb008180410082487800aa
:100998000040e80001e8b70001c8bf008081fb0003
:1009a8009e0078000181400081a72000810041005d
:1009b800910078000141780041a220008380400026
:1009c800824878000040e80001e8b70001c8bf008d
:1009d8000080fb008000780040a22000a6000700ed
:1009e800800078000e80e8000108780001c8bf0088
:1009f8008080fb000e81e800120178000241780037
:100a080043a2200081804100824878000040e8002d
:100a180001e8b70001c8bf008080fb000e81e80034
:100a2800120178004811de000241780043a220003c
:100a380081804100824878000040e80001e8b70062
:100a48000080fa00000006000a00fa0060a02000fa
:100a5800104078000080fb00c800dd0070a0200076
:100a6800104078000080fb0081007000640047009f
:100a780001087800a0a02000104078000080fb004a
:100a88000000d100004078008080fb00660047002d
:100a98000108780070002000000f78000e80e80040
:100aa800e4004700110878001800370040a0200033
:100ab8001e004000104078000080fb00c800dd00e8
:100ac8001e00e80042a0200000004100104078000d
:100ad8000080fb0001007000000178000e80e80033
:100ae800100078008000400080a7200000804000af
:100af800020878001e8fe8000e80e80010007800d9
:100b08008000e8000e80e800010878000e80e80008
:100b180090007800640047001001780066004700e4
:100b28001000780000004100808f5000dfff39007e
:100b380001c8bf008080fb0043a220000041eb00f9
:100b480081804100824878000040e80001e8b70051
:100b580001c8bf008080fb006401470012017800d3
:100b68000241780043a22000818041008248780039
:100b78000040e80001e8b70001c8bf008080fb0022
:100b880043a220000041eb008180410082487800a8
:100b98000040e80001e8b70001c8bf008080fb0002
:100ba80066014700120178000241780043a2200044
:100bb80081804100824878000040e80001e8b700e1
:100bc80001c8bf000080fb008000780040a2200020
:100bd80029000700800078006800470001087800b5
:100be80001c8bf008080fb0068014700120178003f
:100bf8000241780043a220008180410082487800a9
:100c08000040e80001e8b70001c8bf008080fb0091
:100c180068014700120178004811de00024178009f
:100c280043a2200081804100824878000040e8000b
:100c380001e8b7000080fa00000006000200fa0090
:100c48000000eb00000f78000500370040a22000ec
:100c58001e00400010407800090107001e0fe80040
:100c680001c8bf000080fb009e0f5000f7ff3e0048
:100c78000080fa00000006000a00fa00660147003a
:100c880000097800680047000108780000c0eb0000
:100c9800004f780080c0eb000e00e80001487800a3
:100ca8001b0037006600470010007800904078006d
:100cb8000e00e8001040780000c068008080fb004b
:100cc8000e80e800010878006600470010007800f0
:100cd8008000e80066004700010878004080200096
:100ce8008e80e800910078000100400010407800f4
:100cf8009e4068000e00e8000148780040902000ff
:100d08008e80e8009100780001004000104f7800c4
:100d1800680047001000780000f0a7000000ea0013
:100d28000000ea004f00de0000407800e8004700bd
:100d3800910078000101e900e80047008208780086
:100d48000004e000d7ff3a001e80fb00c800dd0069
:100d58000e00e800104078000080fb008100700061
:100d6800640047000108780064004700100078001c
:080d78000080fa0000000600f3
:020000040000fa
:100d8000040a00006000000080000000000800006d
:100d900004000000800000000408000000020000c1
:100da0008200000000c181004001c00080410100bc
:100db000c080410000c181004001c00080410000ae
:100dc000c181400000c181004001c000804101009c
:100dd000c080410000c181004000c100814001008d
:100de000c080410000c181004001c000804101007d
:100df000c080410000c181004001c000804100006e
:100e0000c181400000c181004001c000804100005c
:100e1000c181400001c080004101c000804100004c
:100e2000c181400000c181004001c000804101003b
:100e3000c080410000c181004001c000804100002d
:100e4000c181400000c181004001c000804101001b
:100e5000c080410000c181004000c100814001000c
:100e6000c080410000c181004001c00080410100fc
:100e7000c080410000c181004000c10081400100ec
:100e8000c080410001c080004100c10081400100dc
:100e9000c080410000c181004000c10081400100cc
:100ea000c080410000c181004001c00080410100bc
:100eb000c080410000c181004001c00080410000ad
:100ec000c181400000c181004001c000804101009b
:100ed000c080410000c181004000c100814001008c
:100ee000c080410000c181004001c000804101007c
:100ef000c080410000c181004000c000c101c300aa
:100f00000302c200c6060700c705c500c404cc0022
:100f10000c0dcd000fcfce000e0aca00cb0bc900be
:100f20000908c800d8181900d91bdb00da1a1e00fe
:100f3000dedf1f00dd1d1c00dc14d400d515d7003a
:100f40001716d600d2121300d311d100d010f00022
:100f50003031f10033f3f2003236f600f737f500a6
:100f60003534f4003cfcfd003dff3f003efefa003e
:100f70003a3bfb0039f9f8003828e800e929eb0092
:100f80002b2aea00ee2e2f00ef2ded00ec2ce400d2
:100f90002425e50027e7e6002622e200e323e1001e
:100fa0002120e000a0606100a163a300a2626600ae
:100fb000a6a76700a5656400a46cac00ad6daf008a
:100fc0006f6eae00aa6a6b00ab69a900a8687800d2
:100fd000b8b97900bb7b7a00babe7e007fbf7d00c6
:100fe000bdbc7c00b4747500b577b700b6767200ee
:100ff000b2b37300b1717000b05090009151930082
:1010000053529200965657009755950094549c0061
:101010005c5d9d005f9f9e005e5a9a009b5b9900fd
:101020005958980088484900894b8b008a4a4e00dd
:101030008e8f4f008d4d4c008c4484008545870079
:101040004746860082424300834181008040000081
:10105000640a00002800000080000000000000007a
:020000040000fa
:101060000000fa0090012000001d88000000280008
:10107000c01c88009a23ef009b43a8009b83a80014
:101080000080fa00000006000200fa00004f78001d
:1010900000000000d11c80000020200000806000c3
:1010a0000000e000fbff3a001e80fb00e01c88000f
:1010b0000080fa00000006000600fa000e81e80039
:1010c0000009780064004700010878000000eb0088
:1010d000000f78000a0037000e80e800100078004a
:1010e00010407800e8ff07000e80e800100078004c
:1010f0008000e8000e80e800010878001e0fe8007c
:1011000064004700100078009e0f5000f2ff3e0080
:101110000080fa00000006000000fa006206a90044
:10112000020007000080fa00000006000000fa003c
:1011300001088000f00b20000081600060042000a6
:101140007105200003102000804978008149780053
:1011500082497800a13d800000fc2f0000806000e3
:10116000a000b300a03d8800213f8000f00f2800c0
:10117000808060000030200001007000203f880067
:1011800000088000000178000260a00060042000d8
:101190007105200003102000804978008149780003
:1011a000824978000080fa00000006000000fa0082
:1011b00009000700010037000000000002c8bf005e
:1011c0000004e000fcff32000268ef00befc0700f4
:1011d0000068ef00f9ff37000000fa001d0007006b
:1011e0000080fa00000006000000fa0095a1a900a6
:1011f00094c1a9009421a900a10c8000f0cf2f0078
:1012000000806000a00c880094a1a9009481a9002e
:101210009021ef0000e82300900c88000080fa0085
:10122000000006000000fa00bbff0700eeff070009
:101230008bff07000080fa00000006000000fa00a3
:10124000f8ff0700d9ff07000000eb000080fa005c
:10125000000006000000fa009960a8009860a8004d
:081260000080fa000000060006
:020000040000fa
:020000040015e5
:047e0000ffffff0081
:020000040000fa
:020000040015e5
:047e2000ff1f000040
:020000040000fa
:020000040015e5
:047e3000faffff0056
:020000040000fa
:020000040015e5
:047e3800bdffff008b
:020000040000fa
:020000040015e5
:047e40009fffff00a1
:020000040000fa
:020000040015e5
:047e4800ffffff0039
:020000040000fa
:020000040015e5
:047e5000deffff0052
:020000040000fa
:020000040015e5
:047e5800ffffff0029
:00000001FF
